{
	"data": {
		"bytecode": {
			"linkReferences": {},
			"object": "60a06040525f6001553480156012575f80fd5b50426002819055504260808181525050630dc4c7c05f8190555060805161081a61004b5f395f81816102490152610303015261081a5ff3fe608060405234801561000f575f80fd5b50600436106100a7575f3560e01c8063725cedd31161006f578063725cedd31461015357806378e9792514610171578063abee967c1461018f578063b581fbe3146101ad578063c374e7a4146101dd578063d0df3803146101f9576100a7565b806316c8fb59146100ab5780633b5d441e146100c95780634089b170146100f95780634ca2d2e81461011757806358a1cabf14610135575b5f80fd5b6100b3610217565b6040516100c091906104cf565b60405180910390f35b6100e360048036038101906100de9190610546565b61021f565b6040516100f091906104cf565b60405180910390f35b610101610234565b60405161010e91906104cf565b60405180910390f35b61011f61023a565b60405161012c91906104cf565b60405180910390f35b61013d61023f565b60405161014a91906104cf565b60405180910390f35b61015b610245565b60405161016891906104cf565b60405180910390f35b610179610301565b60405161018691906104cf565b60405180910390f35b610197610325565b6040516101a491906104cf565b60405180910390f35b6101c760048036038101906101c2919061059b565b61032a565b6040516101d491906104cf565b60405180910390f35b6101f760048036038101906101f29190610546565b6103b4565b005b6102016104b2565b60405161020e91906104cf565b60405180910390f35b630dc4c7c081565b6003602052805f5260405f205f915090505481565b60015481565b600181565b60025481565b5f807f00000000000000000000000000000000000000000000000000000000000000004261027391906105f3565b90505f8160016102839190610626565b90505f61028f8261032a565b90505f630dc4c7c0670de0b6b3a7640000600154630dc4c7c06102b291906105f3565b6102bc9190610626565b6102c69190610694565b90505f670de0b6b3a7640000828460156102e09190610626565b6102ea9190610626565b6102f49190610694565b9050809550505050505090565b7f000000000000000000000000000000000000000000000000000000000000000081565b601581565b5f80670de0b6b3a764000090505f670de0b6b3a764000090505f600190505b60158160ff1610156103a9578060ff16670de0b6b3a764000061036c91906106d7565b67ffffffffffffffff1685836103829190610626565b61038c9190610694565b9150818361039a91906105f3565b92508080600101915050610349565b508192505050919050565b6201518060035f8373ffffffffffffffffffffffffffffffffffffffff1673ffffffffffffffffffffffffffffffffffffffff1681526020019081526020015f20544261040191906105f3565b1015610442576040517f08c379a000000000000000000000000000000000000000000000000000000000815260040161043990610793565b60405180910390fd5b5f61044b610245565b90508060015f82825461045e91906107b1565b925050819055504260035f8473ffffffffffffffffffffffffffffffffffffffff1673ffffffffffffffffffffffffffffffffffffffff1681526020019081526020015f2081905550426002819055505050565b5f5481565b5f819050919050565b6104c9816104b7565b82525050565b5f6020820190506104e25f8301846104c0565b92915050565b5f80fd5b5f73ffffffffffffffffffffffffffffffffffffffff82169050919050565b5f610515826104ec565b9050919050565b6105258161050b565b811461052f575f80fd5b50565b5f813590506105408161051c565b92915050565b5f6020828403121561055b5761055a6104e8565b5b5f61056884828501610532565b91505092915050565b61057a816104b7565b8114610584575f80fd5b50565b5f8135905061059581610571565b92915050565b5f602082840312156105b0576105af6104e8565b5b5f6105bd84828501610587565b91505092915050565b7f4e487b71000000000000000000000000000000000000000000000000000000005f52601160045260245ffd5b5f6105fd826104b7565b9150610608836104b7565b92508282039050818111156106205761061f6105c6565b5b92915050565b5f610630826104b7565b915061063b836104b7565b9250828202610649816104b7565b915082820484148315176106605761065f6105c6565b5b5092915050565b7f4e487b71000000000000000000000000000000000000000000000000000000005f52601260045260245ffd5b5f61069e826104b7565b91506106a9836104b7565b9250826106b9576106b8610667565b5b828204905092915050565b5f67ffffffffffffffff82169050919050565b5f6106e1826106c4565b91506106ec836106c4565b92508282026106fa816106c4565b915080821461070c5761070b6105c6565b5b5092915050565b5f82825260208201905092915050565b7f5265776172642063616e206f6e6c7920626520636c61696d6564206f6e6365205f8201527f657665727920323420686f757273000000000000000000000000000000000000602082015250565b5f61077d602e83610713565b915061078882610723565b604082019050919050565b5f6020820190508181035f8301526107aa81610771565b9050919050565b5f6107bb826104b7565b91506107c6836104b7565b92508282019050808211156107de576107dd6105c6565b5b9291505056fea2646970667358221220dc8e8ddcc77145d0bc7bd20d219445efe27537197574d3e6b372959849dbc9ce64736f6c634300081a0033",
			"opcodes": "PUSH1 0xA0 PUSH1 0x40 MSTORE PUSH0 PUSH1 0x1 SSTORE CALLVALUE DUP1 ISZERO PUSH1 0x12 JUMPI PUSH0 DUP1 REVERT JUMPDEST POP TIMESTAMP PUSH1 0x2 DUP2 SWAP1 SSTORE POP TIMESTAMP PUSH1 0x80 DUP2 DUP2 MSTORE POP POP PUSH4 0xDC4C7C0 PUSH0 DUP2 SWAP1 SSTORE POP PUSH1 0x80 MLOAD PUSH2 0x81A PUSH2 0x4B PUSH0 CODECOPY PUSH0 DUP2 DUP2 PUSH2 0x249 ADD MSTORE PUSH2 0x303 ADD MSTORE PUSH2 0x81A PUSH0 RETURN INVALID PUSH1 0x80 PUSH1 0x40 MSTORE CALLVALUE DUP1 ISZERO PUSH2 0xF JUMPI PUSH0 DUP1 REVERT JUMPDEST POP PUSH1 0x4 CALLDATASIZE LT PUSH2 0xA7 JUMPI PUSH0 CALLDATALOAD PUSH1 0xE0 SHR DUP1 PUSH4 0x725CEDD3 GT PUSH2 0x6F JUMPI DUP1 PUSH4 0x725CEDD3 EQ PUSH2 0x153 JUMPI DUP1 PUSH4 0x78E97925 EQ PUSH2 0x171 JUMPI DUP1 PUSH4 0xABEE967C EQ PUSH2 0x18F JUMPI DUP1 PUSH4 0xB581FBE3 EQ PUSH2 0x1AD JUMPI DUP1 PUSH4 0xC374E7A4 EQ PUSH2 0x1DD JUMPI DUP1 PUSH4 0xD0DF3803 EQ PUSH2 0x1F9 JUMPI PUSH2 0xA7 JUMP JUMPDEST DUP1 PUSH4 0x16C8FB59 EQ PUSH2 0xAB JUMPI DUP1 PUSH4 0x3B5D441E EQ PUSH2 0xC9 JUMPI DUP1 PUSH4 0x4089B170 EQ PUSH2 0xF9 JUMPI DUP1 PUSH4 0x4CA2D2E8 EQ PUSH2 0x117 JUMPI DUP1 PUSH4 0x58A1CABF EQ PUSH2 0x135 JUMPI JUMPDEST PUSH0 DUP1 REVERT JUMPDEST PUSH2 0xB3 PUSH2 0x217 JUMP JUMPDEST PUSH1 0x40 MLOAD PUSH2 0xC0 SWAP2 SWAP1 PUSH2 0x4CF JUMP JUMPDEST PUSH1 0x40 MLOAD DUP1 SWAP2 SUB SWAP1 RETURN JUMPDEST PUSH2 0xE3 PUSH1 0x4 DUP1 CALLDATASIZE SUB DUP2 ADD SWAP1 PUSH2 0xDE SWAP2 SWAP1 PUSH2 0x546 JUMP JUMPDEST PUSH2 0x21F JUMP JUMPDEST PUSH1 0x40 MLOAD PUSH2 0xF0 SWAP2 SWAP1 PUSH2 0x4CF JUMP JUMPDEST PUSH1 0x40 MLOAD DUP1 SWAP2 SUB SWAP1 RETURN JUMPDEST PUSH2 0x101 PUSH2 0x234 JUMP JUMPDEST PUSH1 0x40 MLOAD PUSH2 0x10E SWAP2 SWAP1 PUSH2 0x4CF JUMP JUMPDEST PUSH1 0x40 MLOAD DUP1 SWAP2 SUB SWAP1 RETURN JUMPDEST PUSH2 0x11F PUSH2 0x23A JUMP JUMPDEST PUSH1 0x40 MLOAD PUSH2 0x12C SWAP2 SWAP1 PUSH2 0x4CF JUMP JUMPDEST PUSH1 0x40 MLOAD DUP1 SWAP2 SUB SWAP1 RETURN JUMPDEST PUSH2 0x13D PUSH2 0x23F JUMP JUMPDEST PUSH1 0x40 MLOAD PUSH2 0x14A SWAP2 SWAP1 PUSH2 0x4CF JUMP JUMPDEST PUSH1 0x40 MLOAD DUP1 SWAP2 SUB SWAP1 RETURN JUMPDEST PUSH2 0x15B PUSH2 0x245 JUMP JUMPDEST PUSH1 0x40 MLOAD PUSH2 0x168 SWAP2 SWAP1 PUSH2 0x4CF JUMP JUMPDEST PUSH1 0x40 MLOAD DUP1 SWAP2 SUB SWAP1 RETURN JUMPDEST PUSH2 0x179 PUSH2 0x301 JUMP JUMPDEST PUSH1 0x40 MLOAD PUSH2 0x186 SWAP2 SWAP1 PUSH2 0x4CF JUMP JUMPDEST PUSH1 0x40 MLOAD DUP1 SWAP2 SUB SWAP1 RETURN JUMPDEST PUSH2 0x197 PUSH2 0x325 JUMP JUMPDEST PUSH1 0x40 MLOAD PUSH2 0x1A4 SWAP2 SWAP1 PUSH2 0x4CF JUMP JUMPDEST PUSH1 0x40 MLOAD DUP1 SWAP2 SUB SWAP1 RETURN JUMPDEST PUSH2 0x1C7 PUSH1 0x4 DUP1 CALLDATASIZE SUB DUP2 ADD SWAP1 PUSH2 0x1C2 SWAP2 SWAP1 PUSH2 0x59B JUMP JUMPDEST PUSH2 0x32A JUMP JUMPDEST PUSH1 0x40 MLOAD PUSH2 0x1D4 SWAP2 SWAP1 PUSH2 0x4CF JUMP JUMPDEST PUSH1 0x40 MLOAD DUP1 SWAP2 SUB SWAP1 RETURN JUMPDEST PUSH2 0x1F7 PUSH1 0x4 DUP1 CALLDATASIZE SUB DUP2 ADD SWAP1 PUSH2 0x1F2 SWAP2 SWAP1 PUSH2 0x546 JUMP JUMPDEST PUSH2 0x3B4 JUMP JUMPDEST STOP JUMPDEST PUSH2 0x201 PUSH2 0x4B2 JUMP JUMPDEST PUSH1 0x40 MLOAD PUSH2 0x20E SWAP2 SWAP1 PUSH2 0x4CF JUMP JUMPDEST PUSH1 0x40 MLOAD DUP1 SWAP2 SUB SWAP1 RETURN JUMPDEST PUSH4 0xDC4C7C0 DUP2 JUMP JUMPDEST PUSH1 0x3 PUSH1 0x20 MSTORE DUP1 PUSH0 MSTORE PUSH1 0x40 PUSH0 KECCAK256 PUSH0 SWAP2 POP SWAP1 POP SLOAD DUP2 JUMP JUMPDEST PUSH1 0x1 SLOAD DUP2 JUMP JUMPDEST PUSH1 0x1 DUP2 JUMP JUMPDEST PUSH1 0x2 SLOAD DUP2 JUMP JUMPDEST PUSH0 DUP1 PUSH32 0x0 TIMESTAMP PUSH2 0x273 SWAP2 SWAP1 PUSH2 0x5F3 JUMP JUMPDEST SWAP1 POP PUSH0 DUP2 PUSH1 0x1 PUSH2 0x283 SWAP2 SWAP1 PUSH2 0x626 JUMP JUMPDEST SWAP1 POP PUSH0 PUSH2 0x28F DUP3 PUSH2 0x32A JUMP JUMPDEST SWAP1 POP PUSH0 PUSH4 0xDC4C7C0 PUSH8 0xDE0B6B3A7640000 PUSH1 0x1 SLOAD PUSH4 0xDC4C7C0 PUSH2 0x2B2 SWAP2 SWAP1 PUSH2 0x5F3 JUMP JUMPDEST PUSH2 0x2BC SWAP2 SWAP1 PUSH2 0x626 JUMP JUMPDEST PUSH2 0x2C6 SWAP2 SWAP1 PUSH2 0x694 JUMP JUMPDEST SWAP1 POP PUSH0 PUSH8 0xDE0B6B3A7640000 DUP3 DUP5 PUSH1 0x15 PUSH2 0x2E0 SWAP2 SWAP1 PUSH2 0x626 JUMP JUMPDEST PUSH2 0x2EA SWAP2 SWAP1 PUSH2 0x626 JUMP JUMPDEST PUSH2 0x2F4 SWAP2 SWAP1 PUSH2 0x694 JUMP JUMPDEST SWAP1 POP DUP1 SWAP6 POP POP POP POP POP POP SWAP1 JUMP JUMPDEST PUSH32 0x0 DUP2 JUMP JUMPDEST PUSH1 0x15 DUP2 JUMP JUMPDEST PUSH0 DUP1 PUSH8 0xDE0B6B3A7640000 SWAP1 POP PUSH0 PUSH8 0xDE0B6B3A7640000 SWAP1 POP PUSH0 PUSH1 0x1 SWAP1 POP JUMPDEST PUSH1 0x15 DUP2 PUSH1 0xFF AND LT ISZERO PUSH2 0x3A9 JUMPI DUP1 PUSH1 0xFF AND PUSH8 0xDE0B6B3A7640000 PUSH2 0x36C SWAP2 SWAP1 PUSH2 0x6D7 JUMP JUMPDEST PUSH8 0xFFFFFFFFFFFFFFFF AND DUP6 DUP4 PUSH2 0x382 SWAP2 SWAP1 PUSH2 0x626 JUMP JUMPDEST PUSH2 0x38C SWAP2 SWAP1 PUSH2 0x694 JUMP JUMPDEST SWAP2 POP DUP2 DUP4 PUSH2 0x39A SWAP2 SWAP1 PUSH2 0x5F3 JUMP JUMPDEST SWAP3 POP DUP1 DUP1 PUSH1 0x1 ADD SWAP2 POP POP PUSH2 0x349 JUMP JUMPDEST POP DUP2 SWAP3 POP POP POP SWAP2 SWAP1 POP JUMP JUMPDEST PUSH3 0x15180 PUSH1 0x3 PUSH0 DUP4 PUSH20 0xFFFFFFFFFFFFFFFFFFFFFFFFFFFFFFFFFFFFFFFF AND PUSH20 0xFFFFFFFFFFFFFFFFFFFFFFFFFFFFFFFFFFFFFFFF AND DUP2 MSTORE PUSH1 0x20 ADD SWAP1 DUP2 MSTORE PUSH1 0x20 ADD PUSH0 KECCAK256 SLOAD TIMESTAMP PUSH2 0x401 SWAP2 SWAP1 PUSH2 0x5F3 JUMP JUMPDEST LT ISZERO PUSH2 0x442 JUMPI PUSH1 0x40 MLOAD PUSH32 0x8C379A000000000000000000000000000000000000000000000000000000000 DUP2 MSTORE PUSH1 0x4 ADD PUSH2 0x439 SWAP1 PUSH2 0x793 JUMP JUMPDEST PUSH1 0x40 MLOAD DUP1 SWAP2 SUB SWAP1 REVERT JUMPDEST PUSH0 PUSH2 0x44B PUSH2 0x245 JUMP JUMPDEST SWAP1 POP DUP1 PUSH1 0x1 PUSH0 DUP3 DUP3 SLOAD PUSH2 0x45E SWAP2 SWAP1 PUSH2 0x7B1 JUMP JUMPDEST SWAP3 POP POP DUP2 SWAP1 SSTORE POP TIMESTAMP PUSH1 0x3 PUSH0 DUP5 PUSH20 0xFFFFFFFFFFFFFFFFFFFFFFFFFFFFFFFFFFFFFFFF AND PUSH20 0xFFFFFFFFFFFFFFFFFFFFFFFFFFFFFFFFFFFFFFFF AND DUP2 MSTORE PUSH1 0x20 ADD SWAP1 DUP2 MSTORE PUSH1 0x20 ADD PUSH0 KECCAK256 DUP2 SWAP1 SSTORE POP TIMESTAMP PUSH1 0x2 DUP2 SWAP1 SSTORE POP POP POP JUMP JUMPDEST PUSH0 SLOAD DUP2 JUMP JUMPDEST PUSH0 DUP2 SWAP1 POP SWAP2 SWAP1 POP JUMP JUMPDEST PUSH2 0x4C9 DUP2 PUSH2 0x4B7 JUMP JUMPDEST DUP3 MSTORE POP POP JUMP JUMPDEST PUSH0 PUSH1 0x20 DUP3 ADD SWAP1 POP PUSH2 0x4E2 PUSH0 DUP4 ADD DUP5 PUSH2 0x4C0 JUMP JUMPDEST SWAP3 SWAP2 POP POP JUMP JUMPDEST PUSH0 DUP1 REVERT JUMPDEST PUSH0 PUSH20 0xFFFFFFFFFFFFFFFFFFFFFFFFFFFFFFFFFFFFFFFF DUP3 AND SWAP1 POP SWAP2 SWAP1 POP JUMP JUMPDEST PUSH0 PUSH2 0x515 DUP3 PUSH2 0x4EC JUMP JUMPDEST SWAP1 POP SWAP2 SWAP1 POP JUMP JUMPDEST PUSH2 0x525 DUP2 PUSH2 0x50B JUMP JUMPDEST DUP2 EQ PUSH2 0x52F JUMPI PUSH0 DUP1 REVERT JUMPDEST POP JUMP JUMPDEST PUSH0 DUP2 CALLDATALOAD SWAP1 POP PUSH2 0x540 DUP2 PUSH2 0x51C JUMP JUMPDEST SWAP3 SWAP2 POP POP JUMP JUMPDEST PUSH0 PUSH1 0x20 DUP3 DUP5 SUB SLT ISZERO PUSH2 0x55B JUMPI PUSH2 0x55A PUSH2 0x4E8 JUMP JUMPDEST JUMPDEST PUSH0 PUSH2 0x568 DUP5 DUP3 DUP6 ADD PUSH2 0x532 JUMP JUMPDEST SWAP2 POP POP SWAP3 SWAP2 POP POP JUMP JUMPDEST PUSH2 0x57A DUP2 PUSH2 0x4B7 JUMP JUMPDEST DUP2 EQ PUSH2 0x584 JUMPI PUSH0 DUP1 REVERT JUMPDEST POP JUMP JUMPDEST PUSH0 DUP2 CALLDATALOAD SWAP1 POP PUSH2 0x595 DUP2 PUSH2 0x571 JUMP JUMPDEST SWAP3 SWAP2 POP POP JUMP JUMPDEST PUSH0 PUSH1 0x20 DUP3 DUP5 SUB SLT ISZERO PUSH2 0x5B0 JUMPI PUSH2 0x5AF PUSH2 0x4E8 JUMP JUMPDEST JUMPDEST PUSH0 PUSH2 0x5BD DUP5 DUP3 DUP6 ADD PUSH2 0x587 JUMP JUMPDEST SWAP2 POP POP SWAP3 SWAP2 POP POP JUMP JUMPDEST PUSH32 0x4E487B7100000000000000000000000000000000000000000000000000000000 PUSH0 MSTORE PUSH1 0x11 PUSH1 0x4 MSTORE PUSH1 0x24 PUSH0 REVERT JUMPDEST PUSH0 PUSH2 0x5FD DUP3 PUSH2 0x4B7 JUMP JUMPDEST SWAP2 POP PUSH2 0x608 DUP4 PUSH2 0x4B7 JUMP JUMPDEST SWAP3 POP DUP3 DUP3 SUB SWAP1 POP DUP2 DUP2 GT ISZERO PUSH2 0x620 JUMPI PUSH2 0x61F PUSH2 0x5C6 JUMP JUMPDEST JUMPDEST SWAP3 SWAP2 POP POP JUMP JUMPDEST PUSH0 PUSH2 0x630 DUP3 PUSH2 0x4B7 JUMP JUMPDEST SWAP2 POP PUSH2 0x63B DUP4 PUSH2 0x4B7 JUMP JUMPDEST SWAP3 POP DUP3 DUP3 MUL PUSH2 0x649 DUP2 PUSH2 0x4B7 JUMP JUMPDEST SWAP2 POP DUP3 DUP3 DIV DUP5 EQ DUP4 ISZERO OR PUSH2 0x660 JUMPI PUSH2 0x65F PUSH2 0x5C6 JUMP JUMPDEST JUMPDEST POP SWAP3 SWAP2 POP POP JUMP JUMPDEST PUSH32 0x4E487B7100000000000000000000000000000000000000000000000000000000 PUSH0 MSTORE PUSH1 0x12 PUSH1 0x4 MSTORE PUSH1 0x24 PUSH0 REVERT JUMPDEST PUSH0 PUSH2 0x69E DUP3 PUSH2 0x4B7 JUMP JUMPDEST SWAP2 POP PUSH2 0x6A9 DUP4 PUSH2 0x4B7 JUMP JUMPDEST SWAP3 POP DUP3 PUSH2 0x6B9 JUMPI PUSH2 0x6B8 PUSH2 0x667 JUMP JUMPDEST JUMPDEST DUP3 DUP3 DIV SWAP1 POP SWAP3 SWAP2 POP POP JUMP JUMPDEST PUSH0 PUSH8 0xFFFFFFFFFFFFFFFF DUP3 AND SWAP1 POP SWAP2 SWAP1 POP JUMP JUMPDEST PUSH0 PUSH2 0x6E1 DUP3 PUSH2 0x6C4 JUMP JUMPDEST SWAP2 POP PUSH2 0x6EC DUP4 PUSH2 0x6C4 JUMP JUMPDEST SWAP3 POP DUP3 DUP3 MUL PUSH2 0x6FA DUP2 PUSH2 0x6C4 JUMP JUMPDEST SWAP2 POP DUP1 DUP3 EQ PUSH2 0x70C JUMPI PUSH2 0x70B PUSH2 0x5C6 JUMP JUMPDEST JUMPDEST POP SWAP3 SWAP2 POP POP JUMP JUMPDEST PUSH0 DUP3 DUP3 MSTORE PUSH1 0x20 DUP3 ADD SWAP1 POP SWAP3 SWAP2 POP POP JUMP JUMPDEST PUSH32 0x5265776172642063616E206F6E6C7920626520636C61696D6564206F6E636520 PUSH0 DUP3 ADD MSTORE PUSH32 0x657665727920323420686F757273000000000000000000000000000000000000 PUSH1 0x20 DUP3 ADD MSTORE POP JUMP JUMPDEST PUSH0 PUSH2 0x77D PUSH1 0x2E DUP4 PUSH2 0x713 JUMP JUMPDEST SWAP2 POP PUSH2 0x788 DUP3 PUSH2 0x723 JUMP JUMPDEST PUSH1 0x40 DUP3 ADD SWAP1 POP SWAP2 SWAP1 POP JUMP JUMPDEST PUSH0 PUSH1 0x20 DUP3 ADD SWAP1 POP DUP2 DUP2 SUB PUSH0 DUP4 ADD MSTORE PUSH2 0x7AA DUP2 PUSH2 0x771 JUMP JUMPDEST SWAP1 POP SWAP2 SWAP1 POP JUMP JUMPDEST PUSH0 PUSH2 0x7BB DUP3 PUSH2 0x4B7 JUMP JUMPDEST SWAP2 POP PUSH2 0x7C6 DUP4 PUSH2 0x4B7 JUMP JUMPDEST SWAP3 POP DUP3 DUP3 ADD SWAP1 POP DUP1 DUP3 GT ISZERO PUSH2 0x7DE JUMPI PUSH2 0x7DD PUSH2 0x5C6 JUMP JUMPDEST JUMPDEST SWAP3 SWAP2 POP POP JUMP INVALID LOG2 PUSH5 0x6970667358 0x22 SLT KECCAK256 0xDC DUP15 DUP14 0xDC 0xC7 PUSH18 0x45D0BC7BD20D219445EFE27537197574D3E6 0xB3 PUSH19 0x959849DBC9CE64736F6C634300081A00330000 "
		},
		"gasEstimates": {
			"creation": {
				"codeDepositCost": "414800",
				"executionCost": "infinite",
				"totalCost": "infinite"
			},
			"external": {
				"calculateReward()": "infinite",
				"currentPoolBalance()": "2534",
				"decayConstant()": "392",
				"exp(uint256)": "infinite",
				"initialPoolBalance()": "326",
				"initialReward()": "369",
				"lastPayoutTime()": "2514",
				"lastRewardTime(address)": "2825",
				"rewardPlayer(address)": "infinite",
				"startTime()": "infinite",
				"totalPayouts()": "2470"
			}
		},
		"methodIdentifiers": {
			"calculateReward()": "725cedd3",
			"currentPoolBalance()": "d0df3803",
			"decayConstant()": "4ca2d2e8",
			"exp(uint256)": "b581fbe3",
			"initialPoolBalance()": "16c8fb59",
			"initialReward()": "abee967c",
			"lastPayoutTime()": "58a1cabf",
			"lastRewardTime(address)": "3b5d441e",
			"rewardPlayer(address)": "c374e7a4",
			"startTime()": "78e97925",
			"totalPayouts()": "4089b170"
		}
	},
	"abi": [
		{
			"inputs": [],
			"stateMutability": "nonpayable",
			"type": "constructor"
		},
		{
			"inputs": [],
			"name": "calculateReward",
			"outputs": [
				{
					"internalType": "uint256",
					"name": "",
					"type": "uint256"
				}
			],
			"stateMutability": "view",
			"type": "function"
		},
		{
			"inputs": [],
			"name": "currentPoolBalance",
			"outputs": [
				{
					"internalType": "uint256",
					"name": "",
					"type": "uint256"
				}
			],
			"stateMutability": "view",
			"type": "function"
		},
		{
			"inputs": [],
			"name": "decayConstant",
			"outputs": [
				{
					"internalType": "uint256",
					"name": "",
					"type": "uint256"
				}
			],
			"stateMutability": "view",
			"type": "function"
		},
		{
			"inputs": [
				{
					"internalType": "uint256",
					"name": "x",
					"type": "uint256"
				}
			],
			"name": "exp",
			"outputs": [
				{
					"internalType": "uint256",
					"name": "",
					"type": "uint256"
				}
			],
			"stateMutability": "pure",
			"type": "function"
		},
		{
			"inputs": [],
			"name": "initialPoolBalance",
			"outputs": [
				{
					"internalType": "uint256",
					"name": "",
					"type": "uint256"
				}
			],
			"stateMutability": "view",
			"type": "function"
		},
		{
			"inputs": [],
			"name": "initialReward",
			"outputs": [
				{
					"internalType": "uint256",
					"name": "",
					"type": "uint256"
				}
			],
			"stateMutability": "view",
			"type": "function"
		},
		{
			"inputs": [],
			"name": "lastPayoutTime",
			"outputs": [
				{
					"internalType": "uint256",
					"name": "",
					"type": "uint256"
				}
			],
			"stateMutability": "view",
			"type": "function"
		},
		{
			"inputs": [
				{
					"internalType": "address",
					"name": "",
					"type": "address"
				}
			],
			"name": "lastRewardTime",
			"outputs": [
				{
					"internalType": "uint256",
					"name": "",
					"type": "uint256"
				}
			],
			"stateMutability": "view",
			"type": "function"
		},
		{
			"inputs": [
				{
					"internalType": "address",
					"name": "player",
					"type": "address"
				}
			],
			"name": "rewardPlayer",
			"outputs": [],
			"stateMutability": "nonpayable",
			"type": "function"
		},
		{
			"inputs": [],
			"name": "startTime",
			"outputs": [
				{
					"internalType": "uint256",
					"name": "",
					"type": "uint256"
				}
			],
			"stateMutability": "view",
			"type": "function"
		},
		{
			"inputs": [],
			"name": "totalPayouts",
			"outputs": [
				{
					"internalType": "uint256",
					"name": "",
					"type": "uint256"
				}
			],
			"stateMutability": "view",
			"type": "function"
		}
	]
}