{
	"contracts/Infinite_EZverse.sol": {
		"RewardSystem": {
			"abi": [
				{
					"inputs": [],
					"name": "calculateReward",
					"outputs": [
						{
							"internalType": "uint256",
							"name": "",
							"type": "uint256"
						}
					],
					"stateMutability": "view",
					"type": "function"
				},
				{
					"inputs": [],
					"name": "decayFactor",
					"outputs": [
						{
							"internalType": "uint256",
							"name": "",
							"type": "uint256"
						}
					],
					"stateMutability": "view",
					"type": "function"
				},
				{
					"inputs": [
						{
							"internalType": "uint256",
							"name": "x",
							"type": "uint256"
						}
					],
					"name": "exp",
					"outputs": [
						{
							"internalType": "uint256",
							"name": "",
							"type": "uint256"
						}
					],
					"stateMutability": "pure",
					"type": "function"
				},
				{
					"inputs": [],
					"name": "initialPoolBalance",
					"outputs": [
						{
							"internalType": "uint256",
							"name": "",
							"type": "uint256"
						}
					],
					"stateMutability": "view",
					"type": "function"
				},
				{
					"inputs": [],
					"name": "initialReward",
					"outputs": [
						{
							"internalType": "uint256",
							"name": "",
							"type": "uint256"
						}
					],
					"stateMutability": "view",
					"type": "function"
				},
				{
					"inputs": [],
					"name": "lastPayoutTime",
					"outputs": [
						{
							"internalType": "uint256",
							"name": "",
							"type": "uint256"
						}
					],
					"stateMutability": "view",
					"type": "function"
				},
				{
					"inputs": [
						{
							"internalType": "address",
							"name": "",
							"type": "address"
						}
					],
					"name": "lastRewardTime",
					"outputs": [
						{
							"internalType": "uint256",
							"name": "",
							"type": "uint256"
						}
					],
					"stateMutability": "view",
					"type": "function"
				},
				{
					"inputs": [
						{
							"internalType": "address",
							"name": "player",
							"type": "address"
						}
					],
					"name": "rewardPlayer",
					"outputs": [],
					"stateMutability": "nonpayable",
					"type": "function"
				},
				{
					"inputs": [],
					"name": "totalPayouts",
					"outputs": [
						{
							"internalType": "uint256",
							"name": "",
							"type": "uint256"
						}
					],
					"stateMutability": "view",
					"type": "function"
				}
			],
			"devdoc": {
				"kind": "dev",
				"methods": {},
				"version": 1
			},
			"evm": {
				"assembly": "    /* \"contracts/Infinite_EZverse.sol\":25:1363  contract RewardSystem {... */\n  mstore(0x40, 0x80)\n  callvalue\n  dup1\n  iszero\n  tag_1\n  jumpi\n  0x00\n  dup1\n  revert\ntag_1:\n  pop\n  dataSize(sub_0)\n  dup1\n  dataOffset(sub_0)\n  0x00\n  codecopy\n  0x00\n  return\nstop\n\nsub_0: assembly {\n        /* \"contracts/Infinite_EZverse.sol\":25:1363  contract RewardSystem {... */\n      mstore(0x40, 0x80)\n      callvalue\n      dup1\n      iszero\n      tag_1\n      jumpi\n      0x00\n      dup1\n      revert\n    tag_1:\n      pop\n      jumpi(tag_2, lt(calldatasize, 0x04))\n      shr(0xe0, calldataload(0x00))\n      dup1\n      0x58a1cabf\n      gt\n      tag_12\n      jumpi\n      dup1\n      0x58a1cabf\n      eq\n      tag_7\n      jumpi\n      dup1\n      0x725cedd3\n      eq\n      tag_8\n      jumpi\n      dup1\n      0xabee967c\n      eq\n      tag_9\n      jumpi\n      dup1\n      0xb581fbe3\n      eq\n      tag_10\n      jumpi\n      dup1\n      0xc374e7a4\n      eq\n      tag_11\n      jumpi\n      jump(tag_2)\n    tag_12:\n      dup1\n      0x16c8fb59\n      eq\n      tag_3\n      jumpi\n      dup1\n      0x20fb3016\n      eq\n      tag_4\n      jumpi\n      dup1\n      0x3b5d441e\n      eq\n      tag_5\n      jumpi\n      dup1\n      0x4089b170\n      eq\n      tag_6\n      jumpi\n    tag_2:\n      0x00\n      dup1\n      revert\n        /* \"contracts/Infinite_EZverse.sol\":53:86  uint256 public initialPoolBalance */\n    tag_3:\n      tag_13\n      tag_14\n      jump\t// in\n    tag_13:\n      mload(0x40)\n      tag_15\n      swap2\n      swap1\n      tag_16\n      jump\t// in\n    tag_15:\n      mload(0x40)\n      dup1\n      swap2\n      sub\n      swap1\n      return\n        /* \"contracts/Infinite_EZverse.sol\":159:185  uint256 public decayFactor */\n    tag_4:\n      tag_17\n      tag_18\n      jump\t// in\n    tag_17:\n      mload(0x40)\n      tag_19\n      swap2\n      swap1\n      tag_16\n      jump\t// in\n    tag_19:\n      mload(0x40)\n      dup1\n      swap2\n      sub\n      swap1\n      return\n        /* \"contracts/Infinite_EZverse.sol\":191:240  mapping(address => uint256) public lastRewardTime */\n    tag_5:\n      tag_20\n      0x04\n      dup1\n      calldatasize\n      sub\n      dup2\n      add\n      swap1\n      tag_21\n      swap2\n      swap1\n      tag_22\n      jump\t// in\n    tag_21:\n      tag_23\n      jump\t// in\n    tag_20:\n      mload(0x40)\n      tag_24\n      swap2\n      swap1\n      tag_16\n      jump\t// in\n    tag_24:\n      mload(0x40)\n      dup1\n      swap2\n      sub\n      swap1\n      return\n        /* \"contracts/Infinite_EZverse.sol\":92:119  uint256 public totalPayouts */\n    tag_6:\n      tag_25\n      tag_26\n      jump\t// in\n    tag_25:\n      mload(0x40)\n      tag_27\n      swap2\n      swap1\n      tag_16\n      jump\t// in\n    tag_27:\n      mload(0x40)\n      dup1\n      swap2\n      sub\n      swap1\n      return\n        /* \"contracts/Infinite_EZverse.sol\":246:275  uint256 public lastPayoutTime */\n    tag_7:\n      tag_28\n      tag_29\n      jump\t// in\n    tag_28:\n      mload(0x40)\n      tag_30\n      swap2\n      swap1\n      tag_16\n      jump\t// in\n    tag_30:\n      mload(0x40)\n      dup1\n      swap2\n      sub\n      swap1\n      return\n        /* \"contracts/Infinite_EZverse.sol\":282:531  function calculateReward() public view returns (uint256) {... */\n    tag_8:\n      tag_31\n      tag_32\n      jump\t// in\n    tag_31:\n      mload(0x40)\n      tag_33\n      swap2\n      swap1\n      tag_16\n      jump\t// in\n    tag_33:\n      mload(0x40)\n      dup1\n      swap2\n      sub\n      swap1\n      return\n        /* \"contracts/Infinite_EZverse.sol\":125:153  uint256 public initialReward */\n    tag_9:\n      tag_34\n      tag_35\n      jump\t// in\n    tag_34:\n      mload(0x40)\n      tag_36\n      swap2\n      swap1\n      tag_16\n      jump\t// in\n    tag_36:\n      mload(0x40)\n      dup1\n      swap2\n      sub\n      swap1\n      return\n        /* \"contracts/Infinite_EZverse.sol\":537:830  function exp(uint256 x) public pure returns (uint256) {... */\n    tag_10:\n      tag_37\n      0x04\n      dup1\n      calldatasize\n      sub\n      dup2\n      add\n      swap1\n      tag_38\n      swap2\n      swap1\n      tag_39\n      jump\t// in\n    tag_38:\n      tag_40\n      jump\t// in\n    tag_37:\n      mload(0x40)\n      tag_41\n      swap2\n      swap1\n      tag_16\n      jump\t// in\n    tag_41:\n      mload(0x40)\n      dup1\n      swap2\n      sub\n      swap1\n      return\n        /* \"contracts/Infinite_EZverse.sol\":836:1361  function rewardPlayer(address player) public {... */\n    tag_11:\n      tag_42\n      0x04\n      dup1\n      calldatasize\n      sub\n      dup2\n      add\n      swap1\n      tag_43\n      swap2\n      swap1\n      tag_22\n      jump\t// in\n    tag_43:\n      tag_44\n      jump\t// in\n    tag_42:\n      stop\n        /* \"contracts/Infinite_EZverse.sol\":53:86  uint256 public initialPoolBalance */\n    tag_14:\n      sload(0x00)\n      dup2\n      jump\t// out\n        /* \"contracts/Infinite_EZverse.sol\":159:185  uint256 public decayFactor */\n    tag_18:\n      sload(0x03)\n      dup2\n      jump\t// out\n        /* \"contracts/Infinite_EZverse.sol\":191:240  mapping(address => uint256) public lastRewardTime */\n    tag_23:\n      mstore(0x20, 0x04)\n      dup1\n      0x00\n      mstore\n      keccak256(0x00, 0x40)\n      0x00\n      swap2\n      pop\n      swap1\n      pop\n      sload\n      dup2\n      jump\t// out\n        /* \"contracts/Infinite_EZverse.sol\":92:119  uint256 public totalPayouts */\n    tag_26:\n      sload(0x01)\n      dup2\n      jump\t// out\n        /* \"contracts/Infinite_EZverse.sol\":246:275  uint256 public lastPayoutTime */\n    tag_29:\n      sload(0x05)\n      dup2\n      jump\t// out\n        /* \"contracts/Infinite_EZverse.sol\":282:531  function calculateReward() public view returns (uint256) {... */\n    tag_32:\n        /* \"contracts/Infinite_EZverse.sol\":330:337  uint256 */\n      0x00\n        /* \"contracts/Infinite_EZverse.sol\":349:366  uint256 poolRatio */\n      dup1\n        /* \"contracts/Infinite_EZverse.sol\":399:411  totalPayouts */\n      sload(0x01)\n        /* \"contracts/Infinite_EZverse.sol\":391:395  1e18 */\n      0x0de0b6b3a7640000\n        /* \"contracts/Infinite_EZverse.sol\":370:388  initialPoolBalance */\n      sload(0x00)\n        /* \"contracts/Infinite_EZverse.sol\":370:395  initialPoolBalance * 1e18 */\n      tag_46\n      swap2\n      swap1\n      tag_47\n      jump\t// in\n    tag_46:\n        /* \"contracts/Infinite_EZverse.sol\":369:411  (initialPoolBalance * 1e18) / totalPayouts */\n      tag_48\n      swap2\n      swap1\n      tag_49\n      jump\t// in\n    tag_48:\n        /* \"contracts/Infinite_EZverse.sol\":349:411  uint256 poolRatio = (initialPoolBalance * 1e18) / totalPayouts */\n      swap1\n      pop\n        /* \"contracts/Infinite_EZverse.sol\":421:435  uint256 reward */\n      0x00\n        /* \"contracts/Infinite_EZverse.sol\":489:500  1e18 * 1000 */\n      0x3635c9adc5dea00000\n        /* \"contracts/Infinite_EZverse.sol\":481:484  979 */\n      0x03d3\n        /* \"contracts/Infinite_EZverse.sol\":469:478  poolRatio */\n      dup4\n        /* \"contracts/Infinite_EZverse.sol\":455:466  decayFactor */\n      sload(0x03)\n        /* \"contracts/Infinite_EZverse.sol\":439:452  initialReward */\n      sload(0x02)\n        /* \"contracts/Infinite_EZverse.sol\":439:466  initialReward * decayFactor */\n      tag_50\n      swap2\n      swap1\n      tag_47\n      jump\t// in\n    tag_50:\n        /* \"contracts/Infinite_EZverse.sol\":439:478  initialReward * decayFactor * poolRatio */\n      tag_51\n      swap2\n      swap1\n      tag_47\n      jump\t// in\n    tag_51:\n        /* \"contracts/Infinite_EZverse.sol\":439:484  initialReward * decayFactor * poolRatio * 979 */\n      tag_52\n      swap2\n      swap1\n      tag_47\n      jump\t// in\n    tag_52:\n        /* \"contracts/Infinite_EZverse.sol\":438:501  (initialReward * decayFactor * poolRatio * 979) / (1e18 * 1000) */\n      tag_53\n      swap2\n      swap1\n      tag_49\n      jump\t// in\n    tag_53:\n        /* \"contracts/Infinite_EZverse.sol\":421:501  uint256 reward = (initialReward * decayFactor * poolRatio * 979) / (1e18 * 1000) */\n      swap1\n      pop\n        /* \"contracts/Infinite_EZverse.sol\":518:524  reward */\n      dup1\n        /* \"contracts/Infinite_EZverse.sol\":511:524  return reward */\n      swap3\n      pop\n      pop\n      pop\n        /* \"contracts/Infinite_EZverse.sol\":282:531  function calculateReward() public view returns (uint256) {... */\n      swap1\n      jump\t// out\n        /* \"contracts/Infinite_EZverse.sol\":125:153  uint256 public initialReward */\n    tag_35:\n      sload(0x02)\n      dup2\n      jump\t// out\n        /* \"contracts/Infinite_EZverse.sol\":537:830  function exp(uint256 x) public pure returns (uint256) {... */\n    tag_40:\n        /* \"contracts/Infinite_EZverse.sol\":582:589  uint256 */\n      0x00\n        /* \"contracts/Infinite_EZverse.sol\":601:615  uint256 result */\n      dup1\n        /* \"contracts/Infinite_EZverse.sol\":618:622  1e18 */\n      0x0de0b6b3a7640000\n        /* \"contracts/Infinite_EZverse.sol\":601:622  uint256 result = 1e18 */\n      swap1\n      pop\n        /* \"contracts/Infinite_EZverse.sol\":632:644  uint256 term */\n      0x00\n        /* \"contracts/Infinite_EZverse.sol\":647:651  1e18 */\n      0x0de0b6b3a7640000\n        /* \"contracts/Infinite_EZverse.sol\":632:651  uint256 term = 1e18 */\n      swap1\n      pop\n        /* \"contracts/Infinite_EZverse.sol\":666:673  uint8 i */\n      0x00\n        /* \"contracts/Infinite_EZverse.sol\":676:677  1 */\n      0x01\n        /* \"contracts/Infinite_EZverse.sol\":666:677  uint8 i = 1 */\n      swap1\n      pop\n        /* \"contracts/Infinite_EZverse.sol\":661:801  for (uint8 i = 1; i < 21; i++) {... */\n    tag_55:\n        /* \"contracts/Infinite_EZverse.sol\":683:685  21 */\n      0x15\n        /* \"contracts/Infinite_EZverse.sol\":679:680  i */\n      dup2\n        /* \"contracts/Infinite_EZverse.sol\":679:685  i < 21 */\n      0xff\n      and\n      lt\n        /* \"contracts/Infinite_EZverse.sol\":661:801  for (uint8 i = 1; i < 21; i++) {... */\n      iszero\n      tag_56\n      jumpi\n        /* \"contracts/Infinite_EZverse.sol\":734:735  i */\n      dup1\n        /* \"contracts/Infinite_EZverse.sol\":727:735  1e18 * i */\n      0xff\n      and\n        /* \"contracts/Infinite_EZverse.sol\":727:731  1e18 */\n      0x0de0b6b3a7640000\n        /* \"contracts/Infinite_EZverse.sol\":727:735  1e18 * i */\n      tag_58\n      swap2\n      swap1\n      tag_59\n      jump\t// in\n    tag_58:\n        /* \"contracts/Infinite_EZverse.sol\":713:736  (term * x) / (1e18 * i) */\n      0xffffffffffffffff\n      and\n        /* \"contracts/Infinite_EZverse.sol\":721:722  x */\n      dup6\n        /* \"contracts/Infinite_EZverse.sol\":714:718  term */\n      dup4\n        /* \"contracts/Infinite_EZverse.sol\":714:722  term * x */\n      tag_60\n      swap2\n      swap1\n      tag_47\n      jump\t// in\n    tag_60:\n        /* \"contracts/Infinite_EZverse.sol\":713:736  (term * x) / (1e18 * i) */\n      tag_61\n      swap2\n      swap1\n      tag_49\n      jump\t// in\n    tag_61:\n        /* \"contracts/Infinite_EZverse.sol\":706:736  term = (term * x) / (1e18 * i) */\n      swap2\n      pop\n        /* \"contracts/Infinite_EZverse.sol\":760:764  term */\n      dup2\n        /* \"contracts/Infinite_EZverse.sol\":750:764  result += term */\n      dup4\n      tag_62\n      swap2\n      swap1\n      tag_63\n      jump\t// in\n    tag_62:\n      swap3\n      pop\n        /* \"contracts/Infinite_EZverse.sol\":687:690  i++ */\n      dup1\n      dup1\n      0x01\n      add\n      swap2\n      pop\n      pop\n        /* \"contracts/Infinite_EZverse.sol\":661:801  for (uint8 i = 1; i < 21; i++) {... */\n      jump(tag_55)\n    tag_56:\n      pop\n        /* \"contracts/Infinite_EZverse.sol\":817:823  result */\n      dup2\n        /* \"contracts/Infinite_EZverse.sol\":810:823  return result */\n      swap3\n      pop\n      pop\n      pop\n        /* \"contracts/Infinite_EZverse.sol\":537:830  function exp(uint256 x) public pure returns (uint256) {... */\n      swap2\n      swap1\n      pop\n      jump\t// out\n        /* \"contracts/Infinite_EZverse.sol\":836:1361  function rewardPlayer(address player) public {... */\n    tag_44:\n        /* \"contracts/Infinite_EZverse.sol\":943:949  1 days */\n      0x015180\n        /* \"contracts/Infinite_EZverse.sol\":917:931  lastRewardTime */\n      0x04\n        /* \"contracts/Infinite_EZverse.sol\":917:939  lastRewardTime[player] */\n      0x00\n        /* \"contracts/Infinite_EZverse.sol\":932:938  player */\n      dup4\n        /* \"contracts/Infinite_EZverse.sol\":917:939  lastRewardTime[player] */\n      0xffffffffffffffffffffffffffffffffffffffff\n      and\n      0xffffffffffffffffffffffffffffffffffffffff\n      and\n      dup2\n      mstore\n      0x20\n      add\n      swap1\n      dup2\n      mstore\n      0x20\n      add\n      0x00\n      keccak256\n      sload\n        /* \"contracts/Infinite_EZverse.sol\":899:914  block.timestamp */\n      timestamp\n        /* \"contracts/Infinite_EZverse.sol\":899:939  block.timestamp - lastRewardTime[player] */\n      tag_65\n      swap2\n      swap1\n      tag_66\n      jump\t// in\n    tag_65:\n        /* \"contracts/Infinite_EZverse.sol\":899:949  block.timestamp - lastRewardTime[player] >= 1 days */\n      lt\n      iszero\n        /* \"contracts/Infinite_EZverse.sol\":891:1000  require(block.timestamp - lastRewardTime[player] >= 1 days, \"Reward can only be claimed once every 24 hours\") */\n      tag_67\n      jumpi\n      mload(0x40)\n      0x08c379a000000000000000000000000000000000000000000000000000000000\n      dup2\n      mstore\n      0x04\n      add\n      tag_68\n      swap1\n      tag_69\n      jump\t// in\n    tag_68:\n      mload(0x40)\n      dup1\n      swap2\n      sub\n      swap1\n      revert\n    tag_67:\n        /* \"contracts/Infinite_EZverse.sol\":1019:1033  uint256 reward */\n      0x00\n        /* \"contracts/Infinite_EZverse.sol\":1036:1053  calculateReward() */\n      tag_70\n        /* \"contracts/Infinite_EZverse.sol\":1036:1051  calculateReward */\n      tag_32\n        /* \"contracts/Infinite_EZverse.sol\":1036:1053  calculateReward() */\n      jump\t// in\n    tag_70:\n        /* \"contracts/Infinite_EZverse.sol\":1019:1053  uint256 reward = calculateReward() */\n      swap1\n      pop\n        /* \"contracts/Infinite_EZverse.sol\":1088:1094  reward */\n      dup1\n        /* \"contracts/Infinite_EZverse.sol\":1072:1084  totalPayouts */\n      0x01\n      0x00\n        /* \"contracts/Infinite_EZverse.sol\":1072:1094  totalPayouts += reward */\n      dup3\n      dup3\n      sload\n      tag_71\n      swap2\n      swap1\n      tag_63\n      jump\t// in\n    tag_71:\n      swap3\n      pop\n      pop\n      dup2\n      swap1\n      sstore\n      pop\n        /* \"contracts/Infinite_EZverse.sol\":1129:1144  block.timestamp */\n      timestamp\n        /* \"contracts/Infinite_EZverse.sol\":1104:1118  lastRewardTime */\n      0x04\n        /* \"contracts/Infinite_EZverse.sol\":1104:1126  lastRewardTime[player] */\n      0x00\n        /* \"contracts/Infinite_EZverse.sol\":1119:1125  player */\n      dup5\n        /* \"contracts/Infinite_EZverse.sol\":1104:1126  lastRewardTime[player] */\n      0xffffffffffffffffffffffffffffffffffffffff\n      and\n      0xffffffffffffffffffffffffffffffffffffffff\n      and\n      dup2\n      mstore\n      0x20\n      add\n      swap1\n      dup2\n      mstore\n      0x20\n      add\n      0x00\n      keccak256\n        /* \"contracts/Infinite_EZverse.sol\":1104:1144  lastRewardTime[player] = block.timestamp */\n      dup2\n      swap1\n      sstore\n      pop\n        /* \"contracts/Infinite_EZverse.sol\":1171:1186  block.timestamp */\n      timestamp\n        /* \"contracts/Infinite_EZverse.sol\":1154:1168  lastPayoutTime */\n      0x05\n        /* \"contracts/Infinite_EZverse.sol\":1154:1186  lastPayoutTime = block.timestamp */\n      dup2\n      swap1\n      sstore\n      pop\n        /* \"contracts/Infinite_EZverse.sol\":881:1361  {... */\n      pop\n        /* \"contracts/Infinite_EZverse.sol\":836:1361  function rewardPlayer(address player) public {... */\n      pop\n      jump\t// out\n        /* \"#utility.yul\":7:84   */\n    tag_72:\n        /* \"#utility.yul\":44:51   */\n      0x00\n        /* \"#utility.yul\":73:78   */\n      dup2\n        /* \"#utility.yul\":62:78   */\n      swap1\n      pop\n        /* \"#utility.yul\":7:84   */\n      swap2\n      swap1\n      pop\n      jump\t// out\n        /* \"#utility.yul\":90:208   */\n    tag_73:\n        /* \"#utility.yul\":177:201   */\n      tag_92\n        /* \"#utility.yul\":195:200   */\n      dup2\n        /* \"#utility.yul\":177:201   */\n      tag_72\n      jump\t// in\n    tag_92:\n        /* \"#utility.yul\":172:175   */\n      dup3\n        /* \"#utility.yul\":165:202   */\n      mstore\n        /* \"#utility.yul\":90:208   */\n      pop\n      pop\n      jump\t// out\n        /* \"#utility.yul\":214:436   */\n    tag_16:\n        /* \"#utility.yul\":307:311   */\n      0x00\n        /* \"#utility.yul\":345:347   */\n      0x20\n        /* \"#utility.yul\":334:343   */\n      dup3\n        /* \"#utility.yul\":330:348   */\n      add\n        /* \"#utility.yul\":322:348   */\n      swap1\n      pop\n        /* \"#utility.yul\":358:429   */\n      tag_94\n        /* \"#utility.yul\":426:427   */\n      0x00\n        /* \"#utility.yul\":415:424   */\n      dup4\n        /* \"#utility.yul\":411:428   */\n      add\n        /* \"#utility.yul\":402:408   */\n      dup5\n        /* \"#utility.yul\":358:429   */\n      tag_73\n      jump\t// in\n    tag_94:\n        /* \"#utility.yul\":214:436   */\n      swap3\n      swap2\n      pop\n      pop\n      jump\t// out\n        /* \"#utility.yul\":523:640   */\n    tag_75:\n        /* \"#utility.yul\":632:633   */\n      0x00\n        /* \"#utility.yul\":629:630   */\n      dup1\n        /* \"#utility.yul\":622:634   */\n      revert\n        /* \"#utility.yul\":769:895   */\n    tag_77:\n        /* \"#utility.yul\":806:813   */\n      0x00\n        /* \"#utility.yul\":846:888   */\n      0xffffffffffffffffffffffffffffffffffffffff\n        /* \"#utility.yul\":839:844   */\n      dup3\n        /* \"#utility.yul\":835:889   */\n      and\n        /* \"#utility.yul\":824:889   */\n      swap1\n      pop\n        /* \"#utility.yul\":769:895   */\n      swap2\n      swap1\n      pop\n      jump\t// out\n        /* \"#utility.yul\":901:997   */\n    tag_78:\n        /* \"#utility.yul\":938:945   */\n      0x00\n        /* \"#utility.yul\":967:991   */\n      tag_100\n        /* \"#utility.yul\":985:990   */\n      dup3\n        /* \"#utility.yul\":967:991   */\n      tag_77\n      jump\t// in\n    tag_100:\n        /* \"#utility.yul\":956:991   */\n      swap1\n      pop\n        /* \"#utility.yul\":901:997   */\n      swap2\n      swap1\n      pop\n      jump\t// out\n        /* \"#utility.yul\":1003:1125   */\n    tag_79:\n        /* \"#utility.yul\":1076:1100   */\n      tag_102\n        /* \"#utility.yul\":1094:1099   */\n      dup2\n        /* \"#utility.yul\":1076:1100   */\n      tag_78\n      jump\t// in\n    tag_102:\n        /* \"#utility.yul\":1069:1074   */\n      dup2\n        /* \"#utility.yul\":1066:1101   */\n      eq\n        /* \"#utility.yul\":1056:1119   */\n      tag_103\n      jumpi\n        /* \"#utility.yul\":1115:1116   */\n      0x00\n        /* \"#utility.yul\":1112:1113   */\n      dup1\n        /* \"#utility.yul\":1105:1117   */\n      revert\n        /* \"#utility.yul\":1056:1119   */\n    tag_103:\n        /* \"#utility.yul\":1003:1125   */\n      pop\n      jump\t// out\n        /* \"#utility.yul\":1131:1270   */\n    tag_80:\n        /* \"#utility.yul\":1177:1182   */\n      0x00\n        /* \"#utility.yul\":1215:1221   */\n      dup2\n        /* \"#utility.yul\":1202:1222   */\n      calldataload\n        /* \"#utility.yul\":1193:1222   */\n      swap1\n      pop\n        /* \"#utility.yul\":1231:1264   */\n      tag_105\n        /* \"#utility.yul\":1258:1263   */\n      dup2\n        /* \"#utility.yul\":1231:1264   */\n      tag_79\n      jump\t// in\n    tag_105:\n        /* \"#utility.yul\":1131:1270   */\n      swap3\n      swap2\n      pop\n      pop\n      jump\t// out\n        /* \"#utility.yul\":1276:1605   */\n    tag_22:\n        /* \"#utility.yul\":1335:1341   */\n      0x00\n        /* \"#utility.yul\":1384:1386   */\n      0x20\n        /* \"#utility.yul\":1372:1381   */\n      dup3\n        /* \"#utility.yul\":1363:1370   */\n      dup5\n        /* \"#utility.yul\":1359:1382   */\n      sub\n        /* \"#utility.yul\":1355:1387   */\n      slt\n        /* \"#utility.yul\":1352:1471   */\n      iszero\n      tag_107\n      jumpi\n        /* \"#utility.yul\":1390:1469   */\n      tag_108\n      tag_75\n      jump\t// in\n    tag_108:\n        /* \"#utility.yul\":1352:1471   */\n    tag_107:\n        /* \"#utility.yul\":1510:1511   */\n      0x00\n        /* \"#utility.yul\":1535:1588   */\n      tag_109\n        /* \"#utility.yul\":1580:1587   */\n      dup5\n        /* \"#utility.yul\":1571:1577   */\n      dup3\n        /* \"#utility.yul\":1560:1569   */\n      dup6\n        /* \"#utility.yul\":1556:1578   */\n      add\n        /* \"#utility.yul\":1535:1588   */\n      tag_80\n      jump\t// in\n    tag_109:\n        /* \"#utility.yul\":1525:1588   */\n      swap2\n      pop\n        /* \"#utility.yul\":1481:1598   */\n      pop\n        /* \"#utility.yul\":1276:1605   */\n      swap3\n      swap2\n      pop\n      pop\n      jump\t// out\n        /* \"#utility.yul\":1611:1733   */\n    tag_81:\n        /* \"#utility.yul\":1684:1708   */\n      tag_111\n        /* \"#utility.yul\":1702:1707   */\n      dup2\n        /* \"#utility.yul\":1684:1708   */\n      tag_72\n      jump\t// in\n    tag_111:\n        /* \"#utility.yul\":1677:1682   */\n      dup2\n        /* \"#utility.yul\":1674:1709   */\n      eq\n        /* \"#utility.yul\":1664:1727   */\n      tag_112\n      jumpi\n        /* \"#utility.yul\":1723:1724   */\n      0x00\n        /* \"#utility.yul\":1720:1721   */\n      dup1\n        /* \"#utility.yul\":1713:1725   */\n      revert\n        /* \"#utility.yul\":1664:1727   */\n    tag_112:\n        /* \"#utility.yul\":1611:1733   */\n      pop\n      jump\t// out\n        /* \"#utility.yul\":1739:1878   */\n    tag_82:\n        /* \"#utility.yul\":1785:1790   */\n      0x00\n        /* \"#utility.yul\":1823:1829   */\n      dup2\n        /* \"#utility.yul\":1810:1830   */\n      calldataload\n        /* \"#utility.yul\":1801:1830   */\n      swap1\n      pop\n        /* \"#utility.yul\":1839:1872   */\n      tag_114\n        /* \"#utility.yul\":1866:1871   */\n      dup2\n        /* \"#utility.yul\":1839:1872   */\n      tag_81\n      jump\t// in\n    tag_114:\n        /* \"#utility.yul\":1739:1878   */\n      swap3\n      swap2\n      pop\n      pop\n      jump\t// out\n        /* \"#utility.yul\":1884:2213   */\n    tag_39:\n        /* \"#utility.yul\":1943:1949   */\n      0x00\n        /* \"#utility.yul\":1992:1994   */\n      0x20\n        /* \"#utility.yul\":1980:1989   */\n      dup3\n        /* \"#utility.yul\":1971:1978   */\n      dup5\n        /* \"#utility.yul\":1967:1990   */\n      sub\n        /* \"#utility.yul\":1963:1995   */\n      slt\n        /* \"#utility.yul\":1960:2079   */\n      iszero\n      tag_116\n      jumpi\n        /* \"#utility.yul\":1998:2077   */\n      tag_117\n      tag_75\n      jump\t// in\n    tag_117:\n        /* \"#utility.yul\":1960:2079   */\n    tag_116:\n        /* \"#utility.yul\":2118:2119   */\n      0x00\n        /* \"#utility.yul\":2143:2196   */\n      tag_118\n        /* \"#utility.yul\":2188:2195   */\n      dup5\n        /* \"#utility.yul\":2179:2185   */\n      dup3\n        /* \"#utility.yul\":2168:2177   */\n      dup6\n        /* \"#utility.yul\":2164:2186   */\n      add\n        /* \"#utility.yul\":2143:2196   */\n      tag_82\n      jump\t// in\n    tag_118:\n        /* \"#utility.yul\":2133:2196   */\n      swap2\n      pop\n        /* \"#utility.yul\":2089:2206   */\n      pop\n        /* \"#utility.yul\":1884:2213   */\n      swap3\n      swap2\n      pop\n      pop\n      jump\t// out\n        /* \"#utility.yul\":2219:2399   */\n    tag_83:\n        /* \"#utility.yul\":2267:2344   */\n      0x4e487b7100000000000000000000000000000000000000000000000000000000\n        /* \"#utility.yul\":2264:2265   */\n      0x00\n        /* \"#utility.yul\":2257:2345   */\n      mstore\n        /* \"#utility.yul\":2364:2368   */\n      0x11\n        /* \"#utility.yul\":2361:2362   */\n      0x04\n        /* \"#utility.yul\":2354:2369   */\n      mstore\n        /* \"#utility.yul\":2388:2392   */\n      0x24\n        /* \"#utility.yul\":2385:2386   */\n      0x00\n        /* \"#utility.yul\":2378:2393   */\n      revert\n        /* \"#utility.yul\":2405:2815   */\n    tag_47:\n        /* \"#utility.yul\":2445:2452   */\n      0x00\n        /* \"#utility.yul\":2468:2488   */\n      tag_121\n        /* \"#utility.yul\":2486:2487   */\n      dup3\n        /* \"#utility.yul\":2468:2488   */\n      tag_72\n      jump\t// in\n    tag_121:\n        /* \"#utility.yul\":2463:2488   */\n      swap2\n      pop\n        /* \"#utility.yul\":2502:2522   */\n      tag_122\n        /* \"#utility.yul\":2520:2521   */\n      dup4\n        /* \"#utility.yul\":2502:2522   */\n      tag_72\n      jump\t// in\n    tag_122:\n        /* \"#utility.yul\":2497:2522   */\n      swap3\n      pop\n        /* \"#utility.yul\":2557:2558   */\n      dup3\n        /* \"#utility.yul\":2554:2555   */\n      dup3\n        /* \"#utility.yul\":2550:2559   */\n      mul\n        /* \"#utility.yul\":2579:2609   */\n      tag_123\n        /* \"#utility.yul\":2597:2608   */\n      dup2\n        /* \"#utility.yul\":2579:2609   */\n      tag_72\n      jump\t// in\n    tag_123:\n        /* \"#utility.yul\":2568:2609   */\n      swap2\n      pop\n        /* \"#utility.yul\":2758:2759   */\n      dup3\n        /* \"#utility.yul\":2749:2756   */\n      dup3\n        /* \"#utility.yul\":2745:2760   */\n      div\n        /* \"#utility.yul\":2742:2743   */\n      dup5\n        /* \"#utility.yul\":2739:2761   */\n      eq\n        /* \"#utility.yul\":2719:2720   */\n      dup4\n        /* \"#utility.yul\":2712:2721   */\n      iszero\n        /* \"#utility.yul\":2692:2775   */\n      or\n        /* \"#utility.yul\":2669:2808   */\n      tag_124\n      jumpi\n        /* \"#utility.yul\":2788:2806   */\n      tag_125\n      tag_83\n      jump\t// in\n    tag_125:\n        /* \"#utility.yul\":2669:2808   */\n    tag_124:\n        /* \"#utility.yul\":2453:2815   */\n      pop\n        /* \"#utility.yul\":2405:2815   */\n      swap3\n      swap2\n      pop\n      pop\n      jump\t// out\n        /* \"#utility.yul\":2821:3001   */\n    tag_84:\n        /* \"#utility.yul\":2869:2946   */\n      0x4e487b7100000000000000000000000000000000000000000000000000000000\n        /* \"#utility.yul\":2866:2867   */\n      0x00\n        /* \"#utility.yul\":2859:2947   */\n      mstore\n        /* \"#utility.yul\":2966:2970   */\n      0x12\n        /* \"#utility.yul\":2963:2964   */\n      0x04\n        /* \"#utility.yul\":2956:2971   */\n      mstore\n        /* \"#utility.yul\":2990:2994   */\n      0x24\n        /* \"#utility.yul\":2987:2988   */\n      0x00\n        /* \"#utility.yul\":2980:2995   */\n      revert\n        /* \"#utility.yul\":3007:3192   */\n    tag_49:\n        /* \"#utility.yul\":3047:3048   */\n      0x00\n        /* \"#utility.yul\":3064:3084   */\n      tag_128\n        /* \"#utility.yul\":3082:3083   */\n      dup3\n        /* \"#utility.yul\":3064:3084   */\n      tag_72\n      jump\t// in\n    tag_128:\n        /* \"#utility.yul\":3059:3084   */\n      swap2\n      pop\n        /* \"#utility.yul\":3098:3118   */\n      tag_129\n        /* \"#utility.yul\":3116:3117   */\n      dup4\n        /* \"#utility.yul\":3098:3118   */\n      tag_72\n      jump\t// in\n    tag_129:\n        /* \"#utility.yul\":3093:3118   */\n      swap3\n      pop\n        /* \"#utility.yul\":3137:3138   */\n      dup3\n        /* \"#utility.yul\":3127:3162   */\n      tag_130\n      jumpi\n        /* \"#utility.yul\":3142:3160   */\n      tag_131\n      tag_84\n      jump\t// in\n    tag_131:\n        /* \"#utility.yul\":3127:3162   */\n    tag_130:\n        /* \"#utility.yul\":3184:3185   */\n      dup3\n        /* \"#utility.yul\":3181:3182   */\n      dup3\n        /* \"#utility.yul\":3177:3186   */\n      div\n        /* \"#utility.yul\":3172:3186   */\n      swap1\n      pop\n        /* \"#utility.yul\":3007:3192   */\n      swap3\n      swap2\n      pop\n      pop\n      jump\t// out\n        /* \"#utility.yul\":3198:3299   */\n    tag_85:\n        /* \"#utility.yul\":3234:3241   */\n      0x00\n        /* \"#utility.yul\":3274:3292   */\n      0xffffffffffffffff\n        /* \"#utility.yul\":3267:3272   */\n      dup3\n        /* \"#utility.yul\":3263:3293   */\n      and\n        /* \"#utility.yul\":3252:3293   */\n      swap1\n      pop\n        /* \"#utility.yul\":3198:3299   */\n      swap2\n      swap1\n      pop\n      jump\t// out\n        /* \"#utility.yul\":3305:3580   */\n    tag_59:\n        /* \"#utility.yul\":3344:3351   */\n      0x00\n        /* \"#utility.yul\":3367:3386   */\n      tag_134\n        /* \"#utility.yul\":3384:3385   */\n      dup3\n        /* \"#utility.yul\":3367:3386   */\n      tag_85\n      jump\t// in\n    tag_134:\n        /* \"#utility.yul\":3362:3386   */\n      swap2\n      pop\n        /* \"#utility.yul\":3400:3419   */\n      tag_135\n        /* \"#utility.yul\":3417:3418   */\n      dup4\n        /* \"#utility.yul\":3400:3419   */\n      tag_85\n      jump\t// in\n    tag_135:\n        /* \"#utility.yul\":3395:3419   */\n      swap3\n      pop\n        /* \"#utility.yul\":3454:3455   */\n      dup3\n        /* \"#utility.yul\":3451:3452   */\n      dup3\n        /* \"#utility.yul\":3447:3456   */\n      mul\n        /* \"#utility.yul\":3476:3505   */\n      tag_136\n        /* \"#utility.yul\":3493:3504   */\n      dup2\n        /* \"#utility.yul\":3476:3505   */\n      tag_85\n      jump\t// in\n    tag_136:\n        /* \"#utility.yul\":3465:3505   */\n      swap2\n      pop\n        /* \"#utility.yul\":3537:3548   */\n      dup1\n        /* \"#utility.yul\":3528:3535   */\n      dup3\n        /* \"#utility.yul\":3525:3549   */\n      eq\n        /* \"#utility.yul\":3515:3573   */\n      tag_137\n      jumpi\n        /* \"#utility.yul\":3553:3571   */\n      tag_138\n      tag_83\n      jump\t// in\n    tag_138:\n        /* \"#utility.yul\":3515:3573   */\n    tag_137:\n        /* \"#utility.yul\":3352:3580   */\n      pop\n        /* \"#utility.yul\":3305:3580   */\n      swap3\n      swap2\n      pop\n      pop\n      jump\t// out\n        /* \"#utility.yul\":3586:3777   */\n    tag_63:\n        /* \"#utility.yul\":3626:3629   */\n      0x00\n        /* \"#utility.yul\":3645:3665   */\n      tag_140\n        /* \"#utility.yul\":3663:3664   */\n      dup3\n        /* \"#utility.yul\":3645:3665   */\n      tag_72\n      jump\t// in\n    tag_140:\n        /* \"#utility.yul\":3640:3665   */\n      swap2\n      pop\n        /* \"#utility.yul\":3679:3699   */\n      tag_141\n        /* \"#utility.yul\":3697:3698   */\n      dup4\n        /* \"#utility.yul\":3679:3699   */\n      tag_72\n      jump\t// in\n    tag_141:\n        /* \"#utility.yul\":3674:3699   */\n      swap3\n      pop\n        /* \"#utility.yul\":3722:3723   */\n      dup3\n        /* \"#utility.yul\":3719:3720   */\n      dup3\n        /* \"#utility.yul\":3715:3724   */\n      add\n        /* \"#utility.yul\":3708:3724   */\n      swap1\n      pop\n        /* \"#utility.yul\":3743:3746   */\n      dup1\n        /* \"#utility.yul\":3740:3741   */\n      dup3\n        /* \"#utility.yul\":3737:3747   */\n      gt\n        /* \"#utility.yul\":3734:3770   */\n      iszero\n      tag_142\n      jumpi\n        /* \"#utility.yul\":3750:3768   */\n      tag_143\n      tag_83\n      jump\t// in\n    tag_143:\n        /* \"#utility.yul\":3734:3770   */\n    tag_142:\n        /* \"#utility.yul\":3586:3777   */\n      swap3\n      swap2\n      pop\n      pop\n      jump\t// out\n        /* \"#utility.yul\":3783:3977   */\n    tag_66:\n        /* \"#utility.yul\":3823:3827   */\n      0x00\n        /* \"#utility.yul\":3843:3863   */\n      tag_145\n        /* \"#utility.yul\":3861:3862   */\n      dup3\n        /* \"#utility.yul\":3843:3863   */\n      tag_72\n      jump\t// in\n    tag_145:\n        /* \"#utility.yul\":3838:3863   */\n      swap2\n      pop\n        /* \"#utility.yul\":3877:3897   */\n      tag_146\n        /* \"#utility.yul\":3895:3896   */\n      dup4\n        /* \"#utility.yul\":3877:3897   */\n      tag_72\n      jump\t// in\n    tag_146:\n        /* \"#utility.yul\":3872:3897   */\n      swap3\n      pop\n        /* \"#utility.yul\":3921:3922   */\n      dup3\n        /* \"#utility.yul\":3918:3919   */\n      dup3\n        /* \"#utility.yul\":3914:3923   */\n      sub\n        /* \"#utility.yul\":3906:3923   */\n      swap1\n      pop\n        /* \"#utility.yul\":3945:3946   */\n      dup2\n        /* \"#utility.yul\":3939:3943   */\n      dup2\n        /* \"#utility.yul\":3936:3947   */\n      gt\n        /* \"#utility.yul\":3933:3970   */\n      iszero\n      tag_147\n      jumpi\n        /* \"#utility.yul\":3950:3968   */\n      tag_148\n      tag_83\n      jump\t// in\n    tag_148:\n        /* \"#utility.yul\":3933:3970   */\n    tag_147:\n        /* \"#utility.yul\":3783:3977   */\n      swap3\n      swap2\n      pop\n      pop\n      jump\t// out\n        /* \"#utility.yul\":3983:4152   */\n    tag_86:\n        /* \"#utility.yul\":4067:4078   */\n      0x00\n        /* \"#utility.yul\":4101:4107   */\n      dup3\n        /* \"#utility.yul\":4096:4099   */\n      dup3\n        /* \"#utility.yul\":4089:4108   */\n      mstore\n        /* \"#utility.yul\":4141:4145   */\n      0x20\n        /* \"#utility.yul\":4136:4139   */\n      dup3\n        /* \"#utility.yul\":4132:4146   */\n      add\n        /* \"#utility.yul\":4117:4146   */\n      swap1\n      pop\n        /* \"#utility.yul\":3983:4152   */\n      swap3\n      swap2\n      pop\n      pop\n      jump\t// out\n        /* \"#utility.yul\":4158:4391   */\n    tag_87:\n        /* \"#utility.yul\":4298:4332   */\n      0x5265776172642063616e206f6e6c7920626520636c61696d6564206f6e636520\n        /* \"#utility.yul\":4294:4295   */\n      0x00\n        /* \"#utility.yul\":4286:4292   */\n      dup3\n        /* \"#utility.yul\":4282:4296   */\n      add\n        /* \"#utility.yul\":4275:4333   */\n      mstore\n        /* \"#utility.yul\":4367:4383   */\n      0x657665727920323420686f757273000000000000000000000000000000000000\n        /* \"#utility.yul\":4362:4364   */\n      0x20\n        /* \"#utility.yul\":4354:4360   */\n      dup3\n        /* \"#utility.yul\":4350:4365   */\n      add\n        /* \"#utility.yul\":4343:4384   */\n      mstore\n        /* \"#utility.yul\":4158:4391   */\n      pop\n      jump\t// out\n        /* \"#utility.yul\":4397:4763   */\n    tag_88:\n        /* \"#utility.yul\":4539:4542   */\n      0x00\n        /* \"#utility.yul\":4560:4627   */\n      tag_152\n        /* \"#utility.yul\":4624:4626   */\n      0x2e\n        /* \"#utility.yul\":4619:4622   */\n      dup4\n        /* \"#utility.yul\":4560:4627   */\n      tag_86\n      jump\t// in\n    tag_152:\n        /* \"#utility.yul\":4553:4627   */\n      swap2\n      pop\n        /* \"#utility.yul\":4636:4729   */\n      tag_153\n        /* \"#utility.yul\":4725:4728   */\n      dup3\n        /* \"#utility.yul\":4636:4729   */\n      tag_87\n      jump\t// in\n    tag_153:\n        /* \"#utility.yul\":4754:4756   */\n      0x40\n        /* \"#utility.yul\":4749:4752   */\n      dup3\n        /* \"#utility.yul\":4745:4757   */\n      add\n        /* \"#utility.yul\":4738:4757   */\n      swap1\n      pop\n        /* \"#utility.yul\":4397:4763   */\n      swap2\n      swap1\n      pop\n      jump\t// out\n        /* \"#utility.yul\":4769:5188   */\n    tag_69:\n        /* \"#utility.yul\":4935:4939   */\n      0x00\n        /* \"#utility.yul\":4973:4975   */\n      0x20\n        /* \"#utility.yul\":4962:4971   */\n      dup3\n        /* \"#utility.yul\":4958:4976   */\n      add\n        /* \"#utility.yul\":4950:4976   */\n      swap1\n      pop\n        /* \"#utility.yul\":5022:5031   */\n      dup2\n        /* \"#utility.yul\":5016:5020   */\n      dup2\n        /* \"#utility.yul\":5012:5032   */\n      sub\n        /* \"#utility.yul\":5008:5009   */\n      0x00\n        /* \"#utility.yul\":4997:5006   */\n      dup4\n        /* \"#utility.yul\":4993:5010   */\n      add\n        /* \"#utility.yul\":4986:5033   */\n      mstore\n        /* \"#utility.yul\":5050:5181   */\n      tag_155\n        /* \"#utility.yul\":5176:5180   */\n      dup2\n        /* \"#utility.yul\":5050:5181   */\n      tag_88\n      jump\t// in\n    tag_155:\n        /* \"#utility.yul\":5042:5181   */\n      swap1\n      pop\n        /* \"#utility.yul\":4769:5188   */\n      swap2\n      swap1\n      pop\n      jump\t// out\n\n    auxdata: 0xa26469706673582212205f3739b925c8a8c0d0379965d7a0d4842bc50cbd09de4afa621cbfa94cf26b8d64736f6c634300081a0033\n}\n",
				"bytecode": {
					"linkReferences": {},
					"object": "6080604052348015600e575f80fd5b5061074f8061001c5f395ff3fe608060405234801561000f575f80fd5b5060043610610091575f3560e01c806358a1cabf1161006457806358a1cabf1461011f578063725cedd31461013d578063abee967c1461015b578063b581fbe314610179578063c374e7a4146101a957610091565b806316c8fb591461009557806320fb3016146100b35780633b5d441e146100d15780634089b17014610101575b5f80fd5b61009d6101c5565b6040516100aa9190610404565b60405180910390f35b6100bb6101ca565b6040516100c89190610404565b60405180910390f35b6100eb60048036038101906100e6919061047b565b6101d0565b6040516100f89190610404565b60405180910390f35b6101096101e5565b6040516101169190610404565b60405180910390f35b6101276101eb565b6040516101349190610404565b60405180910390f35b6101456101f1565b6040516101529190610404565b60405180910390f35b61016361025e565b6040516101709190610404565b60405180910390f35b610193600480360381019061018e91906104d0565b610264565b6040516101a09190610404565b60405180910390f35b6101c360048036038101906101be919061047b565b6102ee565b005b5f5481565b60035481565b6004602052805f5260405f205f915090505481565b60015481565b60055481565b5f80600154670de0b6b3a76400005f5461020b9190610528565b6102159190610596565b90505f683635c9adc5dea000006103d3836003546002546102369190610528565b6102409190610528565b61024a9190610528565b6102549190610596565b9050809250505090565b60025481565b5f80670de0b6b3a764000090505f670de0b6b3a764000090505f600190505b60158160ff1610156102e3578060ff16670de0b6b3a76400006102a691906105d9565b67ffffffffffffffff1685836102bc9190610528565b6102c69190610596565b915081836102d49190610615565b92508080600101915050610283565b508192505050919050565b6201518060045f8373ffffffffffffffffffffffffffffffffffffffff1673ffffffffffffffffffffffffffffffffffffffff1681526020019081526020015f20544261033b9190610648565b101561037c576040517f08c379a0000000000000000000000000000000000000000000000000000000008152600401610373906106fb565b60405180910390fd5b5f6103856101f1565b90508060015f8282546103989190610615565b925050819055504260045f8473ffffffffffffffffffffffffffffffffffffffff1673ffffffffffffffffffffffffffffffffffffffff1681526020019081526020015f2081905550426005819055505050565b5f819050919050565b6103fe816103ec565b82525050565b5f6020820190506104175f8301846103f5565b92915050565b5f80fd5b5f73ffffffffffffffffffffffffffffffffffffffff82169050919050565b5f61044a82610421565b9050919050565b61045a81610440565b8114610464575f80fd5b50565b5f8135905061047581610451565b92915050565b5f602082840312156104905761048f61041d565b5b5f61049d84828501610467565b91505092915050565b6104af816103ec565b81146104b9575f80fd5b50565b5f813590506104ca816104a6565b92915050565b5f602082840312156104e5576104e461041d565b5b5f6104f2848285016104bc565b91505092915050565b7f4e487b71000000000000000000000000000000000000000000000000000000005f52601160045260245ffd5b5f610532826103ec565b915061053d836103ec565b925082820261054b816103ec565b91508282048414831517610562576105616104fb565b5b5092915050565b7f4e487b71000000000000000000000000000000000000000000000000000000005f52601260045260245ffd5b5f6105a0826103ec565b91506105ab836103ec565b9250826105bb576105ba610569565b5b828204905092915050565b5f67ffffffffffffffff82169050919050565b5f6105e3826105c6565b91506105ee836105c6565b92508282026105fc816105c6565b915080821461060e5761060d6104fb565b5b5092915050565b5f61061f826103ec565b915061062a836103ec565b9250828201905080821115610642576106416104fb565b5b92915050565b5f610652826103ec565b915061065d836103ec565b9250828203905081811115610675576106746104fb565b5b92915050565b5f82825260208201905092915050565b7f5265776172642063616e206f6e6c7920626520636c61696d6564206f6e6365205f8201527f657665727920323420686f757273000000000000000000000000000000000000602082015250565b5f6106e5602e8361067b565b91506106f08261068b565b604082019050919050565b5f6020820190508181035f830152610712816106d9565b905091905056fea26469706673582212205f3739b925c8a8c0d0379965d7a0d4842bc50cbd09de4afa621cbfa94cf26b8d64736f6c634300081a0033",
					"opcodes": "PUSH1 0x80 PUSH1 0x40 MSTORE CALLVALUE DUP1 ISZERO PUSH1 0xE JUMPI PUSH0 DUP1 REVERT JUMPDEST POP PUSH2 0x74F DUP1 PUSH2 0x1C PUSH0 CODECOPY PUSH0 RETURN INVALID PUSH1 0x80 PUSH1 0x40 MSTORE CALLVALUE DUP1 ISZERO PUSH2 0xF JUMPI PUSH0 DUP1 REVERT JUMPDEST POP PUSH1 0x4 CALLDATASIZE LT PUSH2 0x91 JUMPI PUSH0 CALLDATALOAD PUSH1 0xE0 SHR DUP1 PUSH4 0x58A1CABF GT PUSH2 0x64 JUMPI DUP1 PUSH4 0x58A1CABF EQ PUSH2 0x11F JUMPI DUP1 PUSH4 0x725CEDD3 EQ PUSH2 0x13D JUMPI DUP1 PUSH4 0xABEE967C EQ PUSH2 0x15B JUMPI DUP1 PUSH4 0xB581FBE3 EQ PUSH2 0x179 JUMPI DUP1 PUSH4 0xC374E7A4 EQ PUSH2 0x1A9 JUMPI PUSH2 0x91 JUMP JUMPDEST DUP1 PUSH4 0x16C8FB59 EQ PUSH2 0x95 JUMPI DUP1 PUSH4 0x20FB3016 EQ PUSH2 0xB3 JUMPI DUP1 PUSH4 0x3B5D441E EQ PUSH2 0xD1 JUMPI DUP1 PUSH4 0x4089B170 EQ PUSH2 0x101 JUMPI JUMPDEST PUSH0 DUP1 REVERT JUMPDEST PUSH2 0x9D PUSH2 0x1C5 JUMP JUMPDEST PUSH1 0x40 MLOAD PUSH2 0xAA SWAP2 SWAP1 PUSH2 0x404 JUMP JUMPDEST PUSH1 0x40 MLOAD DUP1 SWAP2 SUB SWAP1 RETURN JUMPDEST PUSH2 0xBB PUSH2 0x1CA JUMP JUMPDEST PUSH1 0x40 MLOAD PUSH2 0xC8 SWAP2 SWAP1 PUSH2 0x404 JUMP JUMPDEST PUSH1 0x40 MLOAD DUP1 SWAP2 SUB SWAP1 RETURN JUMPDEST PUSH2 0xEB PUSH1 0x4 DUP1 CALLDATASIZE SUB DUP2 ADD SWAP1 PUSH2 0xE6 SWAP2 SWAP1 PUSH2 0x47B JUMP JUMPDEST PUSH2 0x1D0 JUMP JUMPDEST PUSH1 0x40 MLOAD PUSH2 0xF8 SWAP2 SWAP1 PUSH2 0x404 JUMP JUMPDEST PUSH1 0x40 MLOAD DUP1 SWAP2 SUB SWAP1 RETURN JUMPDEST PUSH2 0x109 PUSH2 0x1E5 JUMP JUMPDEST PUSH1 0x40 MLOAD PUSH2 0x116 SWAP2 SWAP1 PUSH2 0x404 JUMP JUMPDEST PUSH1 0x40 MLOAD DUP1 SWAP2 SUB SWAP1 RETURN JUMPDEST PUSH2 0x127 PUSH2 0x1EB JUMP JUMPDEST PUSH1 0x40 MLOAD PUSH2 0x134 SWAP2 SWAP1 PUSH2 0x404 JUMP JUMPDEST PUSH1 0x40 MLOAD DUP1 SWAP2 SUB SWAP1 RETURN JUMPDEST PUSH2 0x145 PUSH2 0x1F1 JUMP JUMPDEST PUSH1 0x40 MLOAD PUSH2 0x152 SWAP2 SWAP1 PUSH2 0x404 JUMP JUMPDEST PUSH1 0x40 MLOAD DUP1 SWAP2 SUB SWAP1 RETURN JUMPDEST PUSH2 0x163 PUSH2 0x25E JUMP JUMPDEST PUSH1 0x40 MLOAD PUSH2 0x170 SWAP2 SWAP1 PUSH2 0x404 JUMP JUMPDEST PUSH1 0x40 MLOAD DUP1 SWAP2 SUB SWAP1 RETURN JUMPDEST PUSH2 0x193 PUSH1 0x4 DUP1 CALLDATASIZE SUB DUP2 ADD SWAP1 PUSH2 0x18E SWAP2 SWAP1 PUSH2 0x4D0 JUMP JUMPDEST PUSH2 0x264 JUMP JUMPDEST PUSH1 0x40 MLOAD PUSH2 0x1A0 SWAP2 SWAP1 PUSH2 0x404 JUMP JUMPDEST PUSH1 0x40 MLOAD DUP1 SWAP2 SUB SWAP1 RETURN JUMPDEST PUSH2 0x1C3 PUSH1 0x4 DUP1 CALLDATASIZE SUB DUP2 ADD SWAP1 PUSH2 0x1BE SWAP2 SWAP1 PUSH2 0x47B JUMP JUMPDEST PUSH2 0x2EE JUMP JUMPDEST STOP JUMPDEST PUSH0 SLOAD DUP2 JUMP JUMPDEST PUSH1 0x3 SLOAD DUP2 JUMP JUMPDEST PUSH1 0x4 PUSH1 0x20 MSTORE DUP1 PUSH0 MSTORE PUSH1 0x40 PUSH0 KECCAK256 PUSH0 SWAP2 POP SWAP1 POP SLOAD DUP2 JUMP JUMPDEST PUSH1 0x1 SLOAD DUP2 JUMP JUMPDEST PUSH1 0x5 SLOAD DUP2 JUMP JUMPDEST PUSH0 DUP1 PUSH1 0x1 SLOAD PUSH8 0xDE0B6B3A7640000 PUSH0 SLOAD PUSH2 0x20B SWAP2 SWAP1 PUSH2 0x528 JUMP JUMPDEST PUSH2 0x215 SWAP2 SWAP1 PUSH2 0x596 JUMP JUMPDEST SWAP1 POP PUSH0 PUSH9 0x3635C9ADC5DEA00000 PUSH2 0x3D3 DUP4 PUSH1 0x3 SLOAD PUSH1 0x2 SLOAD PUSH2 0x236 SWAP2 SWAP1 PUSH2 0x528 JUMP JUMPDEST PUSH2 0x240 SWAP2 SWAP1 PUSH2 0x528 JUMP JUMPDEST PUSH2 0x24A SWAP2 SWAP1 PUSH2 0x528 JUMP JUMPDEST PUSH2 0x254 SWAP2 SWAP1 PUSH2 0x596 JUMP JUMPDEST SWAP1 POP DUP1 SWAP3 POP POP POP SWAP1 JUMP JUMPDEST PUSH1 0x2 SLOAD DUP2 JUMP JUMPDEST PUSH0 DUP1 PUSH8 0xDE0B6B3A7640000 SWAP1 POP PUSH0 PUSH8 0xDE0B6B3A7640000 SWAP1 POP PUSH0 PUSH1 0x1 SWAP1 POP JUMPDEST PUSH1 0x15 DUP2 PUSH1 0xFF AND LT ISZERO PUSH2 0x2E3 JUMPI DUP1 PUSH1 0xFF AND PUSH8 0xDE0B6B3A7640000 PUSH2 0x2A6 SWAP2 SWAP1 PUSH2 0x5D9 JUMP JUMPDEST PUSH8 0xFFFFFFFFFFFFFFFF AND DUP6 DUP4 PUSH2 0x2BC SWAP2 SWAP1 PUSH2 0x528 JUMP JUMPDEST PUSH2 0x2C6 SWAP2 SWAP1 PUSH2 0x596 JUMP JUMPDEST SWAP2 POP DUP2 DUP4 PUSH2 0x2D4 SWAP2 SWAP1 PUSH2 0x615 JUMP JUMPDEST SWAP3 POP DUP1 DUP1 PUSH1 0x1 ADD SWAP2 POP POP PUSH2 0x283 JUMP JUMPDEST POP DUP2 SWAP3 POP POP POP SWAP2 SWAP1 POP JUMP JUMPDEST PUSH3 0x15180 PUSH1 0x4 PUSH0 DUP4 PUSH20 0xFFFFFFFFFFFFFFFFFFFFFFFFFFFFFFFFFFFFFFFF AND PUSH20 0xFFFFFFFFFFFFFFFFFFFFFFFFFFFFFFFFFFFFFFFF AND DUP2 MSTORE PUSH1 0x20 ADD SWAP1 DUP2 MSTORE PUSH1 0x20 ADD PUSH0 KECCAK256 SLOAD TIMESTAMP PUSH2 0x33B SWAP2 SWAP1 PUSH2 0x648 JUMP JUMPDEST LT ISZERO PUSH2 0x37C JUMPI PUSH1 0x40 MLOAD PUSH32 0x8C379A000000000000000000000000000000000000000000000000000000000 DUP2 MSTORE PUSH1 0x4 ADD PUSH2 0x373 SWAP1 PUSH2 0x6FB JUMP JUMPDEST PUSH1 0x40 MLOAD DUP1 SWAP2 SUB SWAP1 REVERT JUMPDEST PUSH0 PUSH2 0x385 PUSH2 0x1F1 JUMP JUMPDEST SWAP1 POP DUP1 PUSH1 0x1 PUSH0 DUP3 DUP3 SLOAD PUSH2 0x398 SWAP2 SWAP1 PUSH2 0x615 JUMP JUMPDEST SWAP3 POP POP DUP2 SWAP1 SSTORE POP TIMESTAMP PUSH1 0x4 PUSH0 DUP5 PUSH20 0xFFFFFFFFFFFFFFFFFFFFFFFFFFFFFFFFFFFFFFFF AND PUSH20 0xFFFFFFFFFFFFFFFFFFFFFFFFFFFFFFFFFFFFFFFF AND DUP2 MSTORE PUSH1 0x20 ADD SWAP1 DUP2 MSTORE PUSH1 0x20 ADD PUSH0 KECCAK256 DUP2 SWAP1 SSTORE POP TIMESTAMP PUSH1 0x5 DUP2 SWAP1 SSTORE POP POP POP JUMP JUMPDEST PUSH0 DUP2 SWAP1 POP SWAP2 SWAP1 POP JUMP JUMPDEST PUSH2 0x3FE DUP2 PUSH2 0x3EC JUMP JUMPDEST DUP3 MSTORE POP POP JUMP JUMPDEST PUSH0 PUSH1 0x20 DUP3 ADD SWAP1 POP PUSH2 0x417 PUSH0 DUP4 ADD DUP5 PUSH2 0x3F5 JUMP JUMPDEST SWAP3 SWAP2 POP POP JUMP JUMPDEST PUSH0 DUP1 REVERT JUMPDEST PUSH0 PUSH20 0xFFFFFFFFFFFFFFFFFFFFFFFFFFFFFFFFFFFFFFFF DUP3 AND SWAP1 POP SWAP2 SWAP1 POP JUMP JUMPDEST PUSH0 PUSH2 0x44A DUP3 PUSH2 0x421 JUMP JUMPDEST SWAP1 POP SWAP2 SWAP1 POP JUMP JUMPDEST PUSH2 0x45A DUP2 PUSH2 0x440 JUMP JUMPDEST DUP2 EQ PUSH2 0x464 JUMPI PUSH0 DUP1 REVERT JUMPDEST POP JUMP JUMPDEST PUSH0 DUP2 CALLDATALOAD SWAP1 POP PUSH2 0x475 DUP2 PUSH2 0x451 JUMP JUMPDEST SWAP3 SWAP2 POP POP JUMP JUMPDEST PUSH0 PUSH1 0x20 DUP3 DUP5 SUB SLT ISZERO PUSH2 0x490 JUMPI PUSH2 0x48F PUSH2 0x41D JUMP JUMPDEST JUMPDEST PUSH0 PUSH2 0x49D DUP5 DUP3 DUP6 ADD PUSH2 0x467 JUMP JUMPDEST SWAP2 POP POP SWAP3 SWAP2 POP POP JUMP JUMPDEST PUSH2 0x4AF DUP2 PUSH2 0x3EC JUMP JUMPDEST DUP2 EQ PUSH2 0x4B9 JUMPI PUSH0 DUP1 REVERT JUMPDEST POP JUMP JUMPDEST PUSH0 DUP2 CALLDATALOAD SWAP1 POP PUSH2 0x4CA DUP2 PUSH2 0x4A6 JUMP JUMPDEST SWAP3 SWAP2 POP POP JUMP JUMPDEST PUSH0 PUSH1 0x20 DUP3 DUP5 SUB SLT ISZERO PUSH2 0x4E5 JUMPI PUSH2 0x4E4 PUSH2 0x41D JUMP JUMPDEST JUMPDEST PUSH0 PUSH2 0x4F2 DUP5 DUP3 DUP6 ADD PUSH2 0x4BC JUMP JUMPDEST SWAP2 POP POP SWAP3 SWAP2 POP POP JUMP JUMPDEST PUSH32 0x4E487B7100000000000000000000000000000000000000000000000000000000 PUSH0 MSTORE PUSH1 0x11 PUSH1 0x4 MSTORE PUSH1 0x24 PUSH0 REVERT JUMPDEST PUSH0 PUSH2 0x532 DUP3 PUSH2 0x3EC JUMP JUMPDEST SWAP2 POP PUSH2 0x53D DUP4 PUSH2 0x3EC JUMP JUMPDEST SWAP3 POP DUP3 DUP3 MUL PUSH2 0x54B DUP2 PUSH2 0x3EC JUMP JUMPDEST SWAP2 POP DUP3 DUP3 DIV DUP5 EQ DUP4 ISZERO OR PUSH2 0x562 JUMPI PUSH2 0x561 PUSH2 0x4FB JUMP JUMPDEST JUMPDEST POP SWAP3 SWAP2 POP POP JUMP JUMPDEST PUSH32 0x4E487B7100000000000000000000000000000000000000000000000000000000 PUSH0 MSTORE PUSH1 0x12 PUSH1 0x4 MSTORE PUSH1 0x24 PUSH0 REVERT JUMPDEST PUSH0 PUSH2 0x5A0 DUP3 PUSH2 0x3EC JUMP JUMPDEST SWAP2 POP PUSH2 0x5AB DUP4 PUSH2 0x3EC JUMP JUMPDEST SWAP3 POP DUP3 PUSH2 0x5BB JUMPI PUSH2 0x5BA PUSH2 0x569 JUMP JUMPDEST JUMPDEST DUP3 DUP3 DIV SWAP1 POP SWAP3 SWAP2 POP POP JUMP JUMPDEST PUSH0 PUSH8 0xFFFFFFFFFFFFFFFF DUP3 AND SWAP1 POP SWAP2 SWAP1 POP JUMP JUMPDEST PUSH0 PUSH2 0x5E3 DUP3 PUSH2 0x5C6 JUMP JUMPDEST SWAP2 POP PUSH2 0x5EE DUP4 PUSH2 0x5C6 JUMP JUMPDEST SWAP3 POP DUP3 DUP3 MUL PUSH2 0x5FC DUP2 PUSH2 0x5C6 JUMP JUMPDEST SWAP2 POP DUP1 DUP3 EQ PUSH2 0x60E JUMPI PUSH2 0x60D PUSH2 0x4FB JUMP JUMPDEST JUMPDEST POP SWAP3 SWAP2 POP POP JUMP JUMPDEST PUSH0 PUSH2 0x61F DUP3 PUSH2 0x3EC JUMP JUMPDEST SWAP2 POP PUSH2 0x62A DUP4 PUSH2 0x3EC JUMP JUMPDEST SWAP3 POP DUP3 DUP3 ADD SWAP1 POP DUP1 DUP3 GT ISZERO PUSH2 0x642 JUMPI PUSH2 0x641 PUSH2 0x4FB JUMP JUMPDEST JUMPDEST SWAP3 SWAP2 POP POP JUMP JUMPDEST PUSH0 PUSH2 0x652 DUP3 PUSH2 0x3EC JUMP JUMPDEST SWAP2 POP PUSH2 0x65D DUP4 PUSH2 0x3EC JUMP JUMPDEST SWAP3 POP DUP3 DUP3 SUB SWAP1 POP DUP2 DUP2 GT ISZERO PUSH2 0x675 JUMPI PUSH2 0x674 PUSH2 0x4FB JUMP JUMPDEST JUMPDEST SWAP3 SWAP2 POP POP JUMP JUMPDEST PUSH0 DUP3 DUP3 MSTORE PUSH1 0x20 DUP3 ADD SWAP1 POP SWAP3 SWAP2 POP POP JUMP JUMPDEST PUSH32 0x5265776172642063616E206F6E6C7920626520636C61696D6564206F6E636520 PUSH0 DUP3 ADD MSTORE PUSH32 0x657665727920323420686F757273000000000000000000000000000000000000 PUSH1 0x20 DUP3 ADD MSTORE POP JUMP JUMPDEST PUSH0 PUSH2 0x6E5 PUSH1 0x2E DUP4 PUSH2 0x67B JUMP JUMPDEST SWAP2 POP PUSH2 0x6F0 DUP3 PUSH2 0x68B JUMP JUMPDEST PUSH1 0x40 DUP3 ADD SWAP1 POP SWAP2 SWAP1 POP JUMP JUMPDEST PUSH0 PUSH1 0x20 DUP3 ADD SWAP1 POP DUP2 DUP2 SUB PUSH0 DUP4 ADD MSTORE PUSH2 0x712 DUP2 PUSH2 0x6D9 JUMP JUMPDEST SWAP1 POP SWAP2 SWAP1 POP JUMP INVALID LOG2 PUSH5 0x6970667358 0x22 SLT KECCAK256 PUSH0 CALLDATACOPY CODECOPY 0xB9 0x25 0xC8 0xA8 0xC0 0xD0 CALLDATACOPY SWAP10 PUSH6 0xD7A0D4842BC5 0xC 0xBD MULMOD 0xDE BLOBBASEFEE STATICCALL PUSH3 0x1CBFA9 0x4C CALLCODE PUSH12 0x8D64736F6C634300081A0033 "
				},
				"gasEstimates": {
					"creation": {
						"codeDepositCost": "374200",
						"executionCost": "409",
						"totalCost": "374609"
					},
					"external": {
						"calculateReward()": "infinite",
						"decayFactor()": "2448",
						"exp(uint256)": "infinite",
						"initialPoolBalance()": "2425",
						"initialReward()": "2469",
						"lastPayoutTime()": "2425",
						"lastRewardTime(address)": "2847",
						"rewardPlayer(address)": "infinite",
						"totalPayouts()": "2492"
					}
				},
				"methodIdentifiers": {
					"calculateReward()": "725cedd3",
					"decayFactor()": "20fb3016",
					"exp(uint256)": "b581fbe3",
					"initialPoolBalance()": "16c8fb59",
					"initialReward()": "abee967c",
					"lastPayoutTime()": "58a1cabf",
					"lastRewardTime(address)": "3b5d441e",
					"rewardPlayer(address)": "c374e7a4",
					"totalPayouts()": "4089b170"
				}
			},
			"storageLayout": {
				"storage": [
					{
						"astId": 3,
						"contract": "contracts/Infinite_EZverse.sol:RewardSystem",
						"label": "initialPoolBalance",
						"offset": 0,
						"slot": "0",
						"type": "t_uint256"
					},
					{
						"astId": 5,
						"contract": "contracts/Infinite_EZverse.sol:RewardSystem",
						"label": "totalPayouts",
						"offset": 0,
						"slot": "1",
						"type": "t_uint256"
					},
					{
						"astId": 7,
						"contract": "contracts/Infinite_EZverse.sol:RewardSystem",
						"label": "initialReward",
						"offset": 0,
						"slot": "2",
						"type": "t_uint256"
					},
					{
						"astId": 9,
						"contract": "contracts/Infinite_EZverse.sol:RewardSystem",
						"label": "decayFactor",
						"offset": 0,
						"slot": "3",
						"type": "t_uint256"
					},
					{
						"astId": 13,
						"contract": "contracts/Infinite_EZverse.sol:RewardSystem",
						"label": "lastRewardTime",
						"offset": 0,
						"slot": "4",
						"type": "t_mapping(t_address,t_uint256)"
					},
					{
						"astId": 15,
						"contract": "contracts/Infinite_EZverse.sol:RewardSystem",
						"label": "lastPayoutTime",
						"offset": 0,
						"slot": "5",
						"type": "t_uint256"
					}
				],
				"types": {
					"t_address": {
						"encoding": "inplace",
						"label": "address",
						"numberOfBytes": "20"
					},
					"t_mapping(t_address,t_uint256)": {
						"encoding": "mapping",
						"key": "t_address",
						"label": "mapping(address => uint256)",
						"numberOfBytes": "32",
						"value": "t_uint256"
					},
					"t_uint256": {
						"encoding": "inplace",
						"label": "uint256",
						"numberOfBytes": "32"
					}
				}
			},
			"userdoc": {
				"kind": "user",
				"methods": {},
				"version": 1
			}
		}
	}
}